:0400000007EF00F016
:0A0008005E825FED15F09DEF1CF025
:1008000000566F6C74616765206973202E2E2E0070
:10081000252E326600494E46004E414E00696E66F6
:0B082000006E616E006C660056000068
:10082C00000E00017B6F000E7A6F36C08CF037C063
:10083C008DF038C08EF039C08FF08FBF2AEF04F0E6
:10084C0028EF04F040EF04F0000E7B6F010E7A6F7E
:10085C008CC001F08DC002F08EC003F08FC004F08C
:10086C0006EC1CF001C08CF002C08DF003C08EF0C1
:10087C0004C08FF0000E0001936F000E926FC6C083
:10088C007EF0C7C07FF07A517B11D8A450EF04F0F2
:10089C0052EF04F059EF04F0CAA557EF04F059EFEA
:1008AC0004F073EF04F07A517B11D8A460EF04F0DC
:1008BC0062EF04F068EF04F0000E616F2B0E606FB6
:1008CC006CEF04F0000E616F2D0E606F60C000F1D4
:1008DC00924B932B7E07D8A07F078CC001F08DC064
:1008EC0002F08EC003F08FC004F0EFEC16F00104A0
:1008FC000210D8A484EF04F086EF04F0DDEF04F0CE
:10090C00BF0E3B6EFF0E3C6E3A503D6E3E6A3B5046
:10091C003D263C503E223E500AE11A0E3D5CD8A0CA
:10092C009AEF04F09DEF04F0010E9EEF04F0000E20
:10093C000001626F636B62516311D8B4A8EF04F0CD
:10094C00AAEF04F0B8EF04F0000E9225056E010E2C
:10095C009321066E150E076E080E086E70EC1AF0D9
:10096C00C4EF04F0000E9225056E010E9321066E65
:10097C001D0E076E080E086E70EC1AF00001FD0ECD
:10098C007E27FF0E7F2334C011F035C012F0000E0D
:10099C00136E010E146E7EC015F07FC016F03EEC87
:1009AC0018F011C034F012C035F041EF0AF08CC0D1
:1009BC0001F08DC002F08EC003F08FC004F0EFEC9C
:1009CC0016F001500210D8A4EEEF04F0F0EF04F092
:1009DC0030EF05F0BF0E3B6EFF0E3C6E3A503D6E95
:1009EC003E6A3B503D263C503E223E500AE11A0ED8
:1009FC003D5CD8A004EF05F007EF05F0010E08EF01
:100A0C0005F0000E0001646F656B64516511D8B47C
:100A1C0012EF05F014EF05F022EF05F0000E922511
:100A2C00056E010E9321066E190E076E080E086EE8
:100A3C0070EC1AF0C4EF04F0000E9225056E010E56
:100A4C009321066E210E076E080E086E70EC1AF0DC
:100A5C00C4EF04F0000E0001946F000E956F800E31
:100A6C00966F3F0E976F000E916F000E906F8CC0BB
:100A7C0001F08DC002F08EC003F08FC004F0000EA8
:100A8C00056E000E066E000E076E000E086E5BEC17
:100A9C0019F0D8B054EF05F056EF05F0D9EF05F08A
:100AAC0075EF05F094C00FF095C010F096C011F0E2
:100ABC0097C012F0000E136E000E146E200E156E01
:100ACC00410E166ED2EC0EF00FC094F010C095F0E3
:100ADC0011C096F012C097F00001904B912B8CC076
:100AEC0028F08DC029F08EC02AF08FC02BF0000E9C
:100AFC00136E000E146E200E156E410E166E94C001
:100B0C000FF095C010F096C011F097C012F0D2EC17
:100B1C000EF00FC02CF010C02DF011C02EF012C032
:100B2C002FF06DEC16F0D8B09EEF05F0A0EF05F0AD
:100B3C0058EF05F0C0EF05F094C001F095C002F03D
:100B4C0096C003F097C004F0000E056E000E066E02
:100B5C00200E076E410E086EE7EC10F001C094F009
:100B6C0002C095F003C096F004C097F00001900706
:100B7C00D8A091078CC028F08DC029F08EC02AF027
:100B8C008FC02BF094C02CF095C02DF096C02EF099
:100B9C0097C02FF06DEC16F0D8A0D7EF05F0D9EF79
:100BAC0005F0A2EF05F03AC007F0086A11EC1AF054
:100BBC0007500001816F81C080F0670E8119D8A4A5
:100BCC00EAEF05F0ECEF05F012EF06F0C851C91191
:100BDC00D8A4F3EF05F0F5EF05F0F9EF05F0000EF2
:100BEC00C96F010EC86FC9BF06EF06F0C95106E107
:100BFC00C805D8B004EF06F006EF06F00CEF06F0CF
:100C0C00000E7D6F060E7C6F1BEF06F0C8C07CF0EB
:100C1C00C9C07DF01BEF06F0C9BF17EF06F019EF46
:100C2C0006F006EF06F00CEF06F0670E8119D8A45B
:100C3C0022EF06F024EF06F053EF06F091AF32EFFF
:100C4C0006F0FC0E905DFF0E9159D8A030EF06F027
:100C5C0032EF06F051EF06F0FF0E3B6EFF0E3C6ECE
:100C6C007CC03DF07DC03EF03B503D263C503E22CA
:100C7C0090513D5C3E50800A3F6E9151800A3F5826
:100C8C00D8A04BEF06F04DEF06F051EF06F0660ED4
:100C9C00806F53EF06F0650E806F7CC072F07DC0E4
:100CAC0073F0670E8119D8A45EEF06F060EF06F0C2
:100CBC0070EF06F0660E8019D8A467EF06F069EFA6
:100CCC0006F072EF06F091BF70EF06F06EEF06F0D3
:100CDC0072EF06F0724B732B660E8019D8A479EF65
:100CEC0006F07BEF06F09BEF06F091BF82EF06F06B
:100CFC0080EF06F08EEF06F0000E946F000E956FED
:100D0C00800E966F3F0E976F000E916F000E906FD6
:100D1C00670E8119D8B495EF06F097EF06F09BEFAC
:100D2C0006F09051722791517323000E8B6F000EB9
:100D3C008A6F8CC082F08DC083F08EC084F08FC01F
:100D4C0085F094C074F095C075F096C076F097C09D
:100D5C0077F02CEF07F082C001F083C002F084C062
:100D6C0003F085C004F094C005F095C006F096C061
:100D7C0007F097C008F0E7EC10F001C01AF002C0C1
:100D8C001BF003C01CF004C01DF0B4EC12F01AC030
:100D9C0086F01BC087F01CC088F01DC089F086C08F
:100DAC0001F087C002F088C003F089C004F0EAECBF
:100DBC0015F001C078F002C079F082C028F083C031
:100DCC0029F084C02AF085C02BF094C013F095C094
:100DDC0014F096C015F097C016F086C00FF087C0BF
:100DEC0010F088C011F089C012F0D2EC0EF00FC0D8
:100DFC002CF010C02DF011C02EF012C02FF063ECAF
:100E0C001BF028C082F029C083F02AC084F02BC0CC
:100E1C0085F094C001F095C002F096C003F097C025
:100E2C0004F0000E056E000E066E200E076E410ECD
:100E3C00086EE7EC10F001C094F002C095F003C00E
:100E4C0096F004C097F000018A4B8B2B72518A5D8F
:100E5C008B51800A3B6E7351800A3B58D8A039EFF6
:100E6C0007F03BEF07F0B1EF06F094C00FF095C020
:100E7C0010F096C011F097C012F0000E136E000E19
:100E8C00146EA00E156E400E166ED2EC0EF00FC046
:100E9C0086F010C087F011C088F012C089F082C0B3
:100EAC0028F083C029F084C02AF085C02BF086C0BE
:100EBC002CF087C02DF088C02EF089C02FF06DEC7F
:100ECC0016F0D8B06CEF07F06EEF07F079EF07F083
:100EDC00000E0001866F000E876F000E886F000EEB
:100EEC00896FA2EF07F082C001F083C002F084C0CA
:100EFC0003F085C004F086C005F087C006F088C0FA
:100F0C0007F089C008F05BEC19F0D8A090EF07F05F
:100F1C0092EF07F0A2EF07F0000178B198EF07F01D
:100F2C009AEF07F0A2EF07F0000E866F000E876FA6
:100F3C00000E886F000E896F8CC001F08DC002F01E
:100F4C008EC003F08FC004F086C005F087C006F099
:100F5C0088C007F089C008F042EC0AF001C082F0AA
:100F6C0002C083F003C084F004C085F082C028F076
:100F7C0083C029F084C02AF085C02BF0000E136EBC
:100F8C00000E146E200E156E410E166E74C00FF00E
:100F9C0075C010F076C011F077C012F0D2EC0EF0E4
:100FAC000FC02CF010C02DF011C02EF012C02FF07D
:100FBC006DEC16F0D8A0E5EF07F0E7EF07F010EFB7
:100FCC0008F00001904B912B74C00FF075C010F01D
:100FDC0076C011F077C012F0000E136E000E146E76
:100FEC00200E156E410E166ED2EC0EF00FC074F082
:100FFC0010C075F011C076F012C077F0660E0001CB
:10100C008019D8A40CEF08F00EEF08F010EF08F0E0
:10101C00724B732B74C094F075C095F076C096F03B
:10102C0077C097F0650E00018019D8B420EF08F056
:10103C0022EF08F028EF08F090C070F091C071F02A
:10104C002CEF08F0000E716F000E706F000E6F6FBA
:10105C00000E6E6F000E6D6F000E6C6F000E8B6FBE
:10106C00000E8A6F27EF09F082C001F083C002F0F6
:10107C0084C003F085C004F094C005F095C006F060
:10108C0096C007F097C008F0E7EC10F001C01AF01A
:10109C0002C01BF003C01CF004C01DF0B4EC12F035
:1010AC001AC086F01BC087F01CC088F01DC089F0E8
:1010BC0086C001F087C002F088C003F089C004F03C
:1010CC00EAEC15F001C078F002C079F00001CAB961
:1010DC0072EF08F074EF08F091EF08F07851791185
:1010EC00D8A47BEF08F07DEF08F091EF08F0670EC5
:1010FC008119D8A484EF08F086EF08F091EF08F07E
:10110C0071BF8DEF08F08BEF08F091EF08F06C4B8E
:10111C006D2BDBEF08F06E516F11D8A498EF08F02F
:10112C009AEF08F0C4EF08F071BFA1EF08F09FEF41
:10113C0008F0C4EF08F0000E9225D96E010E932131
:10114C00DA6E2E0EDF6E924B932B7E07D8A07F07A4
:10115C00000E6F6F010E6E6FC4EF08F0000E92253B
:10116C00D96E010E9321DA6E300EDF6E924B932BFB
:10117C007E07D8A07F076C07D8A06D076C516D1146
:10118C00D8A4CBEF08F0CDEF08F0B4EF08F0000EC8
:10119C009225D96E010E9321DA6E7851300FDF6EE5
:1011AC00924B932B7E07D8A07F0782C028F083C078
:1011BC0029F084C02AF085C02BF094C013F095C0A0
:1011CC0014F096C015F097C016F086C00FF087C0CB
:1011DC0010F088C011F089C012F0D2EC0EF00FC0E4
:1011EC002CF010C02DF011C02EF012C02FF063ECBB
:1011FC001BF028C082F029C083F02AC084F02BC0D9
:10120C0085F094C001F095C002F096C003F097C031
:10121C0004F0000E056E000E066E200E076E410ED9
:10122C00086EE7EC10F001C094F002C095F003C01A
:10123C0096F004C097F000017007D8A071078A4B94
:10124C008B2B72518A5D8B51800A3B6E7351800AD5
:10125C003B58D8B034EF09F036EF09F044EF09F001
:10126C0093BF42EF09F0935109E14B0E925DD8A068
:10127C0042EF09F044EF09F03AEF08F06E516F11AC
:10128C00D8A44BEF09F04DEF09F05EEF09F0CAA9B5
:10129C0052EF09F054EF09F05EEF09F0000E9225C1
:1012AC00D96E010E9321DA6E2E0EDF6E924B932BBC
:1012BC00000E9225D96E010E9321DA6E000EDF6EB0
:1012CC00650E8019D8A46DEF09F06FEF09F0C9EF26
:1012DC0004F0000E8B6F4F0E8A6F000E8A25D96EAC
:1012EC00010E8B21DA6E000EDF6E000E7B6F000E8E
:1012FC007A6F91BF86EF09F084EF09F08EEF09F059
:10130C00000E7B6F010E7A6F906D911FD8B0912BF0
:10131C00000E7D6F020E7C6FBFEF09F08A07D8A01C
:10132C008B07000E8A25D96E010E8B21DA6E90C0C8
:10133C0001F091C002F0000E046E0A0E036E03EC75
:10134C0019F00150300FDF6E90C001F091C002F027
:10135C00000E046E0A0E036EA1EC18F001C090F0A2
:10136C0002C091F000017C07D8A07D077E07D8A0B1
:10137C007F0790519111D8A4C6EF09F0C8EF09F07E
:10138C0094EF09F07DBFD5EF09F07D5106E17C05A6
:10139C00D8B0D3EF09F0D5EF09F094EF09F08A0734
:1013AC00D8A08B077A517B11D8A4DFEF09F0E1EFBD
:1013BC0009F0E7EF09F0000E676F2B0E666FEBEF8D
:1013CC0009F0000E676F2D0E666F000E8A25D96E20
:1013DC00010E8B21DA6E66C0DFFF7E07D8A07F0777
:1013EC008A07D8A08B07BF0E3B6EFF0E3C6E3A509F
:1013FC003D6E3E6A3B503D263C503E223E500AE13B
:10140C001A0E3D5CD8A00DEF0AF010EF0AF0010E99
:10141C0011EF0AF0000E6A6F6B6B6A516B11D8A456
:10142C001AEF0AF01CEF0AF022EF0AF0000E696FB7
:10143C00650E686F26EF0AF0000E696F450E686F37
:10144C00000E8A25D96E010E8B21DA6E68C0DFFF83
:10145C007E07D8A07F07000E9225056E010E932102
:10146C00066E000E8A25076E010E8B21086E70EC3D
:10147C001AF0C9EF04F012000450800B0D6E0450EA
:10148C0004240F6E03AE4DEF0AF04FEF0AF050EF4D
:10149C000AF00F800F50D8B456EF0AF058EF0AF04C
:1014AC006DEF0AF00F28D8A45EEF0AF060EF0AF097
:1014BC0068EF0AF0000E016E000E026E000E036E55
:1014CC00000E046E038E000E046E75EF0AF0000E13
:1014DC00016E000E026E000E036E000E046E0850BC
:1014EC00800B0E6E0D500E18D8B47FEF0AF081EF02
:1014FC000AF082EF0AF00D8C085008240E6E07AE2D
:10150C008AEF0AF08CEF0AF08DEF0AF00E800E5085
:10151C00D8B493EF0AF095EF0AF0AAEF0AF00E2870
:10152C00D8A49BEF0AF09DEF0AF0A5EF0AF0000E8D
:10153C00056E000E066E000E076E000E086E078E0E
:10154C00000E086EB2EF0AF0000E056E000E066E6D
:10155C00000E076E000E086E0F500E5CD8B0B9EF7F
:10156C000AF0BBEF0AF0E2EF0AF00DACC0EF0AF0A4
:10157C00C2EF0AF0C4EF0AF0800E0D1A0FC010F083
:10158C000EC00FF010C00EF001C010F005C001F03D
:10159C0010C005F002C010F006C002F010C006F03A
:1015AC0003C010F007C003F010C007F004C010F027
:1015BC0008C004F010C008F0000E106E0F500EC0E2
:1015CC0009F00A6A095E000E0A5A0ABEF7EF0AF021
:1015DC000A5009E11A0E095CD8A0F7EF0AF0F9EFEE
:1015EC000AF030EF0BF00150021003100410D8A4D5
:1015FC0002EF0BF005EF0BF0010E06EF0BF0000EF7
:10160C00106E000E016E000E026E000E036E000EC8
:10161C00046E0EC00FF039EF0BF010A018EF0BF0AA
:10162C001AEF0BF020EF0BF0D89010300109106E70
:10163C0022EF0BF0D890103201A027EF0BF029EF1E
:10164C000BF02AEF0BF0108E04340432033202320A
:10165C0001320F2A0E500F5CD8A037EF0BF039EF88
:10166C000BF013EF0BF00DBC3EEF0BF040EF0BF05B
:10167C0080EF0BF00F50D8A446EF0BF048EF0BF0B7
:10168C0052EF0BF0000E016E000E026E000E036E98
:10169C00000E046EA1EF0CF005500126065002223C
:1016AC00075003220850042204A05FEF0BF061EFF7
:1016BC000BF00DEF0CF010A066EF0BF068EF0BF0D9
:1016CC006EEF0BF0D89010300109106E70EF0BF02C
:1016DC00D890103201A075EF0BF077EF0BF078EF8C
:1016EC000BF0108E043404320332023201320F2A12
:1016FC000DEF0CF00550015C0650025807500358D2
:10170C000450800A096E0850800A0958D8B091EF2D
:10171C000BF093EF0BF0BEEF0BF00150055C096E74
:10172C00025006580A6E035007580B6E04500858A6
:10173C000C6EFF0E0924016EFF0E0A20026EFF0EC6
:10174C000B20036EFF0E0C20046E800E0D1A106C15
:10175C001050D8A4B4EF0BF0B6EF0BF0C6EF0BF0B3
:10176C00010E0126000E022203220422C6EF0BF00A
:10177C000550015E0650025A0750035A0850045A8D
:10178C000150021003100410D8A4CFEF0BF0D1EFCE
:10179C000BF006EF0CF01050D8A4D7EF0BF0D9EFEC
:1017AC000BF006EF0CF0000E016E000E026E000E38
:1017BC00036E000E046EA1EF0CF0D89001360236C9
:1017CC000336043610AEEDEF0BF0EFEF0BF0F0EF4D
:1017DC000BF0018010A0F5EF0BF0F7EF0BF0FBEF27
:1017EC000BF0D8801036FDEF0BF0D89010360F5060
:1017FC00D8B403EF0CF005EF0CF006EF0CF00F066D
:10180C0003AE0BEF0CF00DEF0CF0E3EF0BF0000E52
:10181C000E6E10AE14EF0CF016EF0CF02EEF0CF069
:10182C0010C009F07F0E0916D8B41FEF0CF021EF91
:10183C000CF025EF0CF0010E0E6E2EEF0CF001A04B
:10184C002AEF0CF02CEF0CF02EEF0CF021EF0CF03B
:10185C000E50D8B434EF0CF036EF0CF061EF0CF006
:10186C00010E0126000E02220322042204A041EFE5
:10187C000CF043EF0CF061EF0CF001C009F002C06A
:10188C000AF003C00BF004C00CF00C340C320B3219
:10189C000A32093209C001F00AC002F00BC003F091
:1018AC000CC004F00F28D8B45EEF0CF060EF0CF015
:1018BC0061EF0CF00F2A0F28D8B467EF0CF069EF2A
:1018CC000CF071EF0CF00F50D8A46FEF0CF071EF1F
:1018DC000CF083EF0CF0000E016E000E026E000E89
:1018EC00036E000E046E0F50D8A47FEF0CF081EF46
:1018FC000CF083EF0CF0000E0D6E0FA088EF0CF0C7
:10190C008AEF0CF08DEF0CF0038E8EEF0CF0039E33
:10191C00D8900F30046E0DAE96EF0CF098EF0CF0E3
:10192C0099EF0CF0048E01C001F002C002F003C06C
:10193C0003F004C004F0120042C0D9FF43C0DAFF28
:10194C00DECFF6FFDDCFF7FF0800F550250AD8A44F
:10195C00B2EF0CF0B4EF0CF0B6EF0EF042C0D9FFC2
:10196C0043C0DAFFDE2A000EDD22000E0001C76F35
:10197C00000EC66FC6C0CAF0C7C0CBF0C869C96933
:10198C0042C0D9FF43C0DAFFDECFF6FFDDCFF7FF51
:10199C000800F5502E0AD8A4D6EF0CF0D8EF0CF0B6
:1019AC0055EF0DF0000EC96F000EC86F42C0D9FF85
:1019BC0043C0DAFFDE2A000EDD2242C0D9FF43C04D
:1019CC00DAFFDECFF6FFDDCFF7FF0800F5502A0A6D
:1019DC00D8A4F3EF0CF0F5EF0CF012EF0DF042C0C1
:1019EC00D9FF43C0DAFFDE2A000EDD2244C0D9FF46
:1019FC0045C0DAFFDFCF46F0020EDE26DFCF47F020
:101A0C00000EDD2246C0D9FF47C0DAFFDECFC8F09A
:101A1C00DDCFC9F055EF0DF042C0D9FF43C0DAFF5E
:101A2C00DECF08F0DDCF09F097EC14F008C0C8F059
:101A3C0009C0C9F029EF0DF042C0D9FF43C0DAFF4D
:101A4C00DE2A000EDD22D00E466EFF0E476E42C01F
:101A5C00D9FF43C0DAFFDECFF6FFDDCFF7FF08007A
:101A6C00F550486E496A465048264750492249501D
:101A7C000AE10A0E485CD8A046EF0DF049EF0DF0D4
:101A8C00010E4AEF0DF0000E4A6E4B6A4A504B1095
:101A9C00D8A453EF0DF055EF0DF022EF0DF042C02E
:101AAC00D9FF43C0DAFFDECFF6FFDDCFF7FF08002A
:101ABC00F550076E086A11EC1AF00750526E52502E
:101ACC00D8B46BEF0DF06DEF0DF0A5EF0DF042C03B
:101ADC00D9FF43C0DAFFDECF46F0DDCF47F0010E71
:101AEC004626000E472246C0F6FF47C0F7FF080007
:101AFC00F550076E086A11EC1AF00750536E5350EC
:101B0C00D8B48BEF0DF08DEF0DF0A5EF0DF042C0BA
:101B1C00D9FF43C0DAFFDECF46F0DDCF47F0020E2F
:101B2C004626000E472246C0F6FF47C0F7FF0800C6
:101B3C00F550076E086A11EC1AF00750546E660ED9
:101B4C005218D8A4ACEF0DF0AEEF0DF0EEEF0DF097
:101B5C0042C0D9FF43C0DAFFDECFF6FFDDCFF7FF7F
:101B6C000800F5CF55F042C0D9FF43C0DAFFDE2A9A
:101B7C00000EDD2244C0D9FF45C0DAFFDFCF46F0AE
:101B8C00040EDE26DFCF47F0000EDD2246C0D9FF63
:101B9C0047C0DAFFDECF4EF0DECF4FF0DECF50F095
:101BAC00DECF51F040C034F041C035F04EC036F0BD
:101BBC004FC037F050C038F051C039F055C03AF032
:101BCC0016EC04F034C040F035C041F0D1EF0EF00B
:101BDC00520E016E000E026E250E036E080E046E80
:101BEC00000E066E020E056E6EEC17F00150021020
:101BFC00D8A403EF0EF005EF0EF080EF0EF042C00C
:101C0C00D9FF43C0DAFFDECF46F0DDCF47F0010E3F
:101C1C004626000E472246C0F6FF47C0F7FF0800D5
:101C2C00F5CF55F0BF0E466EFF0E476E42C0D9FF82
:101C3C0043C0DAFFDECFF6FFDDCFF7FF0800F5502B
:101C4C00486E496A465048264750492249500AE195
:101C5C001A0E485CD8A035EF0EF038EF0EF0010EDE
:101C6C0039EF0EF0000E4C6E4D6A4C504D10D8B43E
:101C7C0042EF0EF044EF0EF05EEF0EF044C0D9FFD1
:101C8C0045C0DAFFDFCF46F0040EDE26DFCF47F08B
:101C9C00000EDD2246C0D9FF47C0DAFFDECF4EF082
:101CAC00DECF4FF0DECF50F0DECF51F076EF0EF0FE
:101CBC0044C0D9FF45C0DAFFDFCF46F0040EDE2664
:101CCC00DFCF47F0000EDD2246C0D9FF47C0DAFF58
:101CDC00DECF4EF0DECF4FF0DECF50F0DECF51F046
:101CEC00020E42C0D9FF43C0DAFFDE26000EDD2211
:101CFC00D8EF0DF042C0D9FF43C0DAFFDECFF6FFBC
:101D0C00DDCFF7FF0800F550250AD8A490EF0EF0B0
:101D1C0092EF0EF0A9EF0EF042C0D9FF43C0DAFFEC
:101D2C00DE2A000EDD22000E026E250E016E40C072
:101D3C0003F041C004F0D9EC17F0000E416E010E17
:101D4C00406ED1EF0EF042C0D9FF43C0DAFFDE2A5D
:101D5C00000EDD22000E416E000E406ED1EF0EF033
:101D6C0042C0D9FF43C0DAFFDECFF6FFDDCFF7FF6D
:101D7C000800F550016E026A40C003F041C004F047
:101D8C00D9EC17F042C0D9FF43C0DAFFDE2A000EAF
:101D9C00DD22A3EF0EF012001250800B1B6E1250BE
:101DAC001224216E11AEDDEF0EF0DFEF0EF0E0EF3E
:101DBC000EF021802150D8B4E6EF0EF0E8EF0EF0D3
:101DCC00FBEF0EF02128D8A4EEEF0EF0F0EF0EF0A2
:101DDC00F8EF0EF0000E0F6E000E106E000E116E6E
:101DEC00000E126E118E03EF0FF0000E0F6E000E30
:101DFC00106E000E116E000E126E1650800B1B1A18
:101E0C0016501624206E15AE0EEF0FF010EF0FF0DB
:101E1C0011EF0FF020802050D8B417EF0FF019EF0E
:101E2C000FF02CEF0FF02028D8A41FEF0FF021EFAC
:101E3C000FF029EF0FF0000E136E000E146E000E53
:101E4C00156E000E166E158E34EF0FF0000E136E1D
:101E5C00000E146E000E156E000E166E2050D8B4C7
:101E6C003AEF0FF03CEF0FF044EF0FF02150D8A4F5
:101E7C0042EF0FF044EF0FF04EEF0FF0000E0F6E2D
:101E8C00000E106E000E116E000E126EE6EF10F0CA
:101E9C0015500F02F3CF26F0F4CF27F026501C6E0E
:101EAC001D6A1E6A1F6A2750226E236A246A256ADD
:101EBC0014501002F3CF26F0F4CF27F026501C2636
:101ECC00000E1D221E221F2227502226000E232226
:101EDC002422252213501102F3CF26F0F4CF27F041
:101EEC0026501C26000E1D221E221F2227502226A1
:101EFC00000E2322242225221EC01FF01DC01EF01E
:101F0C001CC01DF01C6A13501002F3CF26F0F4CF46
:101F1C0027F026501C2627501D22000E1E22000ED4
:101F2C001F2214500F02F3CF26F0F4CF27F02650C7
:101F3C001C2627501D22000E1E22000E1F221EC022
:101F4C001FF01DC01EF01CC01DF01C6A13500F02A8
:101F5C00F3CF26F0F4CF27F026501C2627501D2255
:101F6C00000E1E22000E1F2215501002F3CF26F079
:101F7C00F4CF27F02650222627502322000E2422AD
:101F8C00000E252214501102F3CF26F0F4CF27F0C7
:101F9C002650222627502322000E2422000E252212
:101FAC0015501102F3CF26F0F4CF27F02650176E00
:101FBC002750186E196A1A6A19C01AF018C019F04D
:101FCC0017C018F0176A17502226185023221950E0
:101FDC0024221A5025221CC017F01DC018F01EC058
:101FEC0019F01FC01AF0190E01EF10F0D8901A3228
:101FFC00193218321732E82EFCEF0FF01750222648
:10200C0018502322195024221A5025221EC01FF0CA
:10201C001DC01EF01CC01DF01C6A205021C017F002
:10202C00186A1726000E1822820E1724266EFF0E31
:10203C001820276E37EF10F0D8902236233624362E
:10204C0025361FAE2CEF10F02EEF10F02FEF10F006
:10205C002280D8901C361D361E361F362606D8A078
:10206C00270624AE3CEF10F03EEF10F022EF10F0FC
:10207C00000E206E1FAE45EF10F047EF10F06BEF27
:10208C0010F0FF0E1C14176EFF0E1D14186EFF0EB1
:10209C001E14196E7F0E1F141A6E1750181019107B
:1020AC001A10D8B45CEF10F05EEF10F062EF10F085
:1020BC00010E206E6BEF10F022A067EF10F069EFAD
:1020CC0010F06BEF10F05EEF10F02050D8B471EF01
:1020DC0010F073EF10F097EF10F0010E2226000EA7
:1020EC0023222422252225A07EEF10F080EF10F071
:1020FC0097EF10F022C017F023C018F024C019F08D
:10210C0025C01AF01A341A3219321832173217C085
:10211C0022F018C023F019C024F01AC025F0264A6A
:10212C00272A27BEA2EF10F0275008E12628D8A0B6
:10213C00A2EF10F0A4EF10F0AEEF10F0000E226E34
:10214C00000E236E800E246E7F0E256EDCEF10F0D9
:10215C0027BEBBEF10F0275006E12604D8B0B9EF2C
:10216C0010F0BBEF10F0C7EF10F0000E226E000E57
:10217C00236E000E246E000E256E000E1B6EDCEF1F
:10218C0010F026C021F0FF0E2216FF0E23167F0E34
:10219C002416000E251621A0D6EF10F0D8EF10F063
:1021AC00D9EF10F0248ED8902130256E1B502512BB
:1021BC0022C00FF023C010F024C011F025C012F083
:1021CC0012000450800B116E04500424186E03AEE0
:1021DC00F2EF10F0F4EF10F0F5EF10F0188018504B
:1021EC00D8B4FBEF10F0FDEF10F012EF11F018283F
:1021FC00D8A403EF11F005EF11F00DEF11F0000E64
:10220C00016E000E026E000E036E000E046E038E45
:10221C00000E046E1AEF11F0000E016E000E026E2D
:10222C00000E036E000E046E0850800B111A08503D
:10223C000824196E07AE25EF11F027EF11F028EFE7
:10224C0011F019801950D8B42EEF11F030EF11F0B5
:10225C0045EF11F01928D8A436EF11F038EF11F032
:10226C0040EF11F0000E056E000E066E000E076EAC
:10227C00000E086E078E000E086E4DEF11F0000E6A
:10228C00056E000E066E000E076E000E086E0550F1
:10229C00061007100810D8A456EF11F058EF11F0E3
:1022AC0070EF11F0000E016E000E026E000E036E48
:1022BC00000E046E800E03127F0E041211500412D5
:1022CC0001C001F002C002F003C003F004C004F02E
:1022DC00B3EF12F01850D8A476EF11F078EF11F09C
:1022EC0082EF11F0000E016E000E026E000E036EF6
:1022FC00000E046EB3EF12F0195018C009F00A6A00
:10230C00095E000E0A5A7F0E0924126E000E0A2076
:10231C00136E01C00DF002C00EF003C00FF004C02C
:10232C0010F0000E016E000E026E000E036E000E19
:10233C00046E000E146E000E156E000E166E000E5E
:10234C00176E000E196EE3EF11F01950D8B4B1EFFF
:10235C0011F0B3EF11F0CAEF11F0D8900D360E3624
:10236C000F361036D890013602360336043617AEC7
:10237C00C2EF11F0C4EF11F0C5EF11F00180D8904D
:10238C00143615361636173605500D5C06500E5899
:10239C0007500F5808501058D8A0D7EF11F0D9EFAC
:1023AC0011F0E2EF11F0178C05500D5E06500E5A2D
:1023BC0007500F5A0850105A192A190E1964E9EFD0
:1023CC0011F0EBEF11F0ABEF11F00D500E100F10F0
:1023DC001010D8B4F4EF11F0F6EF11F00EEF12F07C
:1023EC0014800EEF12F0D890013602360336043604
:1023FC0017AE03EF12F005EF12F006EF12F00180AA
:10240C00D89014361536163617361206D8A0130681
:10241C0003AE13EF12F015EF12F0F9EF11F0000EFE
:10242C00196E17AE1CEF12F01EEF12F042EF12F005
:10243C00FF0E1414096EFF0E15140A6EFF0E1614FF
:10244C000B6E7F0E17140C6E09500A100B100C102B
:10245C00D8B433EF12F035EF12F039EF12F0010E61
:10246C00196E42EF12F001A03EEF12F040EF12F0A5
:10247C0042EF12F035EF12F01950D8B448EF12F0C9
:10248C004AEF12F06EEF12F0010E0126000E02223E
:10249C000322042204A055EF12F057EF12F06EEF56
:1024AC0012F001C009F002C00AF003C00BF004C026
:1024BC000CF00C340C320B320A32093209C001F028
:1024CC000AC002F00BC003F00CC004F0124A132A2D
:1024DC0013BE79EF12F0135008E11228D8A079EF4F
:1024EC0012F07BEF12F086EF12F0000E136E1268F2
:1024FC00000E016E000E026E000E036E000E046ED6
:10250C0013BE93EF12F0135006E11204D8B091EF02
:10251C0012F093EF12F0A1EF12F0000E136E000EFA
:10252C00126E000E016E000E026E000E036E000E97
:10253C00046E000E116E12C018F018A0A8EF12F065
:10254C00AAEF12F0ADEF12F0038EAEEF12F0039E75
:10255C00D8901830046E64EF11F01200B4C02AF059
:10256C00B5C02BF0B6C02CF0B7C02DF01AC02AF0B5
:10257C001BC02BF01CC02CF01DC02DF0810E1E6E4C
:10258C00FF0E1F6E2AC020F02BC021F02CC022F0B1
:10259C002DC023F0180ED8EF12F0D890233222322F
:1025AC0021322032E82ED3EF12F020501E24286E58
:1025BC00000E1F20296E29BEEDEF12F0295009E103
:1025CC00170E285CD8A0EDEF12F0EFEF12F0F9EF38
:1025DC0012F01AC01AF01BC01BF01CC01CF01DC05E
:1025EC001DF0BCEF13F029BEFEEF12F000EF13F05C
:1025FC0070EF13F028C01EF0FF0E1F6EFF0E206E42
:10260C007F0E216E000E226E1E660FEF13F017EF79
:10261C0013F022342232213220321F321E2E0AEFC6
:10262C0013F01FC024F020C025F021C026F022C0DA
:10263C0027F024502A141E6E25502B141F6E265082
:10264C002C14206E27502D14216E1E501F1020109C
:10265C002110D8A434EF13F036EF13F038EF13F049
:10266C00EFEF12F02AC01EF02BC01FF02CC020F090
:10267C002DC021F0200E48EF13F0D89021322032DB
:10268C001F321E32E82E43EF13F01E501F10201085
:10269C002110D8B454EF13F056EF13F05EEF13F093
:1026AC0024502A2625502B2226502C2227502D220E
:1026BC00241C1E6E251C1F6E261C206E271C216ED2
:1026CC001E502A161F502B1620502C1621502D163A
:1026DC00B4EF13F02AC01EF02BC01FF02CC020F05A
:1026EC002DC021F0200E80EF13F0D8902132203233
:1026FC001F321E32E82E7BEF13F01E501F102010DD
:10270C002110D8A48CEF13F08EEF13F098EF13F088
:10271C00000E2A6E000E2B6E000E2C6E000E2D6E0F
:10272C00B4EF13F0D8902A341E6E2B341F6E2C3459
:10273C00206E2D34216E1E501F1020102110D8B485
:10274C00AAEF13F0ACEF13F0B4EF13F0000E2A6EF7
:10275C00000E2B6E800E2C6EBF0E2D6E2AC01AF042
:10276C002BC01BF02CC01CF02DC01DF01200096EEC
:10277C000950D8B4C4EF13F0C6EF13F0E8EF13F020
:10278C0004BECDEF13F0CBEF13F0E8EF13F001C064
:10279C0005F002C006F003C007F004C008F0051EE7
:1027AC00061E071E081E052A000E062207220822F6
:1027BC0005C00BF006C00CF007C00DF008C00EF001
:1027CC00F0EF13F001C00BF002C00CF003C00DF0E1
:1027DC0004C00EF00150021003100410D8A4F9EF3D
:1027EC0013F0FBEF13F005EF14F0000E016E000E6A
:1027FC00026E000E036E000E046E96EF14F0960E31
:10280C000A6E0FEF14F00A2AD8900E320D320C32E9
:10281C000B32000E0B14056E000E0C14066E000E1F
:10282C000D14076EFE0E0E14086E055006100710E0
:10283C000810D8A424EF14F026EF14F009EF14F0CC
:10284C0034EF14F00A2A010E0B26000E0C220D2276
:10285C000E22D8900E320D320C320B32000E0B14AD
:10286C00056E000E0C14066E000E0D14076EFF0E96
:10287C000E14086E0550061007100810D8A449EF66
:10288C0014F04BEF14F028EF14F053EF14F00A0689
:10289C00D8900B360C360D360E360DBE58EF14F0A4
:1028AC005AEF14F062EF14F0020E0A6060EF14F0AD
:1028BC0062EF14F04DEF14F00AB067EF14F069EF0B
:1028CC0014F06AEF14F00D9ED8900A320AC005F08D
:1028DC00066A076A086A05C008F0076A066A056A8C
:1028EC0005500B1206500C1207500D1208500E1208
:1028FC000950D8B484EF14F086EF14F08EEF14F076
:10290C0004BE8DEF14F08BEF14F08EEF14F00E8EDE
:10291C000BC001F00CC002F00DC003F00EC004F0AF
:10292C001200000E166E000E156E000E0F6E000ECD
:10293C000E6EA3EF14F0084A092A010E146E08C09B
:10294C00F6FF09C0F7FF0800F550200AD8B4B1EF24
:10295C0014F0B3EF14F0D0EF14F0F70E0A6EFF0E74
:10296C000B6E08C0F6FF09C0F7FF0800F5500C6E9F
:10297C000D6A0A500C260B500D220D5009E1050E64
:10298C000C5CD8A0CCEF14F0CEEF14F0D0EF14F018
:10299C00000E146E14C010F0116A10501110D8A44F
:1029AC00DAEF14F0DCEF14F0A1EF14F0E6EF14F012
:1029BC00000E0F6E010E0E6E084A092A1BEF15F061
:1029CC0008C0F6FF09C0F7FF0800F5500A6E0B6A45
:1029DC000B50000AD8B4F5EF14F01BEF15F00A50A9
:1029EC002B0AD8B4E2EF14F0060AD8B4DEEF14F0D8
:1029FC001BEF15F015C001F016C002F0000E046EAE
:102A0C000A0E036EE9EC1CF008C0F6FF09C0F7FFD4
:102A1C000800F550015E000E025A300E0124156EAE
:102A2C00000E0220166EE2EF14F0D00E0A6EFF0EAE
:102A3C000B6E08C0F6FF09C0F7FF0800F5500C6ECE
:102A4C000D6A0A500C260B500D220D500AE10A0E8D
:102A5C000C5CD8A034EF15F037EF15F0010E38EF01
:102A6C0015F0000E126E136A12501310D8A441EF19
:102A7C0015F043EF15F000EF15F00E500F10D8A421
:102A8C004AEF15F04CEF15F05AEF15F015C00AF09F
:102A9C0016C00BF00A1E0B1E0A4A0B2A0AC008F0BD
:102AAC000BC009F05EEF15F015C008F016C009F068
:102ABC0012000600E1CFAAF0E2CFABF0D9CFACF018
:102ACC00DACFADF0F3CFAEF0F4CFAFF0F6CFB0F08D
:102ADC00F7CFB1F0F8CFB2F0F5CFB3F0C350C4CF0D
:102AEC00A8F00001A96BA8C0A9F0A86BA813000E50
:102AFC00A913A8C0C0F0A9C0C1F0000EC1BFFF0E41
:102B0C00C26FC36FC0C001F0C1C002F0C2C003F0FD
:102B1C00C3C004F0010EBDEC13F001C00FF002C0F5
:102B2C0010F003C011F004C012F00A0E136E280E40
:102B3C00146EA00E156E3B0E166ED2EC0EF00FC07E
:102B4C00BCF010C0BDF011C0BEF012C0BFF0CC0E76
:102B5C000001986F000E996F100E9A6F080E9B6F04
:102B6C00BCC09CF0BDC09DF0BEC09EF0BFC09FF02D
:102B7C009EEC1AF0CC0E0F6E000E106E280E116E1D
:102B8C00080E126ED6EC1CF0040E0A6ECC0E0B6EF8
:102B9C00000E0C6E020ECAEC1BF09E9CB3C0F5FF2F
:102BAC00B2C0F8FFB1C0F7FFB0C0F6FFAFC0F4FF82
:102BBC00AEC0F3FFADC0DAFFACC0D9FFABC0E2FFD3
:102BCC00AAC0E1FF5E921100033404340A6E0A506D
:102BDC00D8A4F3EF15F0F5EF15F0FFEF15F0000E9C
:102BEC00016E000E026E000E036E000E046E6CEF92
:102BFC0016F001C005F002C006F003C007F004C0D7
:102C0C0008F0200E0FEF16F0D8900832073206327B
:102C1C000532E82E0AEF16F00550096E038EFF0EF2
:102C2C000116FF0E0216FF0E0316000E0416960E6A
:102C3C000A5E0ABE26EF16F024EF16F03CEF16F0F3
:102C4C000A50800A970FD8B02EEF16F030EF16F01E
:102C5C0032EF16F0F5EF15F0D89004320332023251
:102C6C0001320A3E32EF16F054EF16F01F0E0A64D2
:102C7C0042EF16F044EF16F04CEF16F0F5EF15F0AE
:102C8C00D89001360236033604360A060A50D8A408
:102C9C0052EF16F054EF16F046EF16F00950D8B478
:102CAC005AEF16F05CEF16F064EF16F0041E031EDC
:102CBC00021E016C000E02220322042201C001F04C
:102CCC0002C002F003C003F004C004F01200000EB6
:102CDC002814306E000E2914316E800E2A14326EB8
:102CEC007F0E2B14336E3050311032103310D8A4A9
:102CFC0082EF16F084EF16F08CEF16F0000E286EB3
:102D0C00000E296E000E2A6E000E2B6E000E2C1477
:102D1C00306E000E2D14316E800E2E14326E7F0E1E
:102D2C002F14336E3050311032103310D8A4A1EF61
:102D3C0016F0A3EF16F0ABEF16F0000E2C6E000E93
:102D4C002D6E000E2E6E000E2F6E2BAEB0EF16F009
:102D5C00B2EF16F0BBEF16F0286C291ED8B0292A5A
:102D6C002A1ED8B02A2A800E2B562FAEC0EF16F092
:102D7C00C2EF16F0CBEF16F02C6C2D1ED8B02D2A0E
:102D8C002E1ED8B02E2A800E2F56000E281A000E9A
:102D9C00291A000E2A1A800E2B1A000E2C1A000E5D
:102DAC002D1A000E2E1A800E2F1A2C50285C2D5026
:102DBC0029582E502A582F502B58D8B0E8EF16F01F
:102DCC00EAEF16F0EDEF16F0D890EEEF16F0D88093
:102DDC001200B8C00BF0B9C00CF0BAC00DF0BBC0FB
:102DEC000EF001C00BF002C00CF003C00DF004C0DB
:102DFC000EF00BC005F00CC006F00DC007F00EC0B5
:102E0C0008F0180E0FEF17F0D89008320732063280
:102E1C000532E82E0AEF17F00550096E0A6A0950C0
:102E2C000A10D8A41CEF17F01EEF17F03EEF17F0A6
:102E3C00D8900B34056E0C34066E0D34076E0E34C0
:102E4C00086E0550061007100810D8A430EF17F0C4
:102E5C0032EF17F038EF17F0000E026E020E016E13
:102E6C006DEF17F0000E026E030E016E6DEF17F092
:102E7C0009280A10D8A445EF17F047EF17F069EFAF
:102E8C0017F00BC005F00CC006F00DC007F00EC01B
:102E9C0008F0090ED8900536063607360836E82EA7
:102EAC0050EF17F00550061007100810D8B461EF5A
:102EBC0017F064EF17F0010E65EF17F0000E016EBE
:102ECC00026A6DEF17F0000E026E040E016E120016
:102EDC0001C008F002C009F003C00AF004C00BF0F6
:102EEC000506D8A00606052806E10628D8A481EF19
:102EFC0017F083EF17F090EF17F0000E026E000E34
:102F0C00016ED8EF17F0084A092A0A4A0B2A05065F
:102F1C00D8A0060608C0D9FF09C0DAFFDF50D8B424
:102F2C009AEF17F09CEF17F0C7EF17F00AC0F6FFF7
:102F3C000BC0F7FF0800F5500009D8B4A8EF17F044
:102F4C00AAEF17F0C7EF17F005500610D8B4B1EF81
:102F5C0017F0B3EF17F0C7EF17F008C0D9FF09C08F
:102F6C00DAFFDF50076E0AC0F6FF0BC0F7FF080050
:102F7C00F5500718D8B4C5EF17F0C7EF17F089EF65
:102F8C0017F008C0D9FF09C0DAFFDF50076E0AC07E
:102F9C00F6FF0BC0F7FF0800F550075C016E026AE4
:102FAC00D8A00206120003500410D8B4E0EF17F0BA
:102FBC00E2EF17F0EBEF17F003500410D8A4E9EF91
:102FCC0017F0EBEF17F0F0EF17F00150FCEC1CF0E2
:102FDC003DEF18F020EE04F00350D9260450DA220D
:102FEC00DE50DE10D8B4FDEF17F0FFEF17F01AEF3C
:102FFC0018F020EE04F00350D9260450DA2210EE1B
:10300C0002F00350E1260450E222DE50E65CE6506A
:10301C00800A096EDE50800A0958D8B018EF18F0F3
:10302C001AEF18F03DEF18F020EE02F00350D926FD
:10303C000450DA22DECF05F0DDCF06F003C0D9FF55
:10304C0004C0DAFFDECF07F0DDCF08F0055007240F
:10305C00D96E06500820DA6E01C0DFFF20EE02F0B8
:10306C000350D9260450DA22DE2A000EDD2212008B
:10307C000001CAA144EF18F046EF18F050EF18F019
:10308C0013C00AF014C00BF011C00CF012C00DF0FC
:10309C00A8EC1BF016BE55EF18F057EF18F05DEFCB
:1030AC0018F015C01AF016C01BF061EF18F0000EE6
:1030BC001B6E000E1A6E000E196E000E186E73EF5A
:1030CC0018F0000E026E200E016E11C003F012C03B
:1030DC0004F0D9EC17F0184A192A1A50185C195038
:1030EC00800A176E1B50800A1758D8A080EF18F072
:1030FC0082EF18F067EF18F00001CAB188EF18F0F2
:10310C008AEF18F094EF18F013C00AF014C00BF00B
:10311C0011C00CF012C00DF0A8EC1BF013C001F0A4
:10312C0014C002F03EEC1CF01A500124116E1B501E
:10313C000220126E1200000E066E04BEAAEF18F0EA
:10314C00A8EF18F0B0EF18F0036C041ED8B0042AE6
:10315C00010E066E02BEB7EF18F0B5EF18F0BDEF1A
:10316C0018F0016C021ED8B0022A010E061A000ECD
:10317C00086E000E076E03500410D8B4C8EF18F098
:10318C00CAEF18F0F2EF18F0010E056ED2EF18F03E
:10319C00D89003360436052A04AED7EF18F0D9EFD1
:1031AC0018F0CEEF18F0D890073608360350015CB3
:1031BC0004500258D8A0E5EF18F0E7EF18F0ECEF48
:1031CC0018F00350015E0450025A0780D890043264
:1031DC000332052ED9EF18F00650D8B4F8EF18F0DA
:1031EC00FAEF18F0FEEF18F0076C081ED8B0082A9A
:1031FC0007C001F008C002F01200000E066E02BEFD
:10320C000CEF19F00AEF19F012EF19F0016C021E15
:10321C00D8B0022A010E066E04BE19EF19F017EF92
:10322C0019F01DEF19F0036C041ED8B0042A0350DA
:10323C000410D8B424EF19F026EF19F04AEF19F066
:10324C00010E056E2EEF19F0D89003360436052AC0
:10325C0004AE33EF19F035EF19F02AEF19F00350E3
:10326C00015C04500258D8A03EEF19F040EF19F061
:10327C0044EF19F00350015E0450025AD890043206
:10328C000332052E35EF19F00650D8B450EF19F073
:10329C0052EF19F056EF19F0016C021ED8B0022A49
:1032AC0001C001F002C002F01200000E0114096E00
:1032BC00000E02140A6E800E03140B6E7F0E0414A3
:1032CC000C6E09500A100B100C10D8A470EF19F0EA
:1032DC0072EF19F07AEF19F0000E016E000E026E0B
:1032EC00000E036E000E046E000E0514096E000E27
:1032FC0006140A6E800E07140B6E7F0E08140C6EEB
:10330C0009500A100B100C10D8A48FEF19F091EF84
:10331C0019F099EF19F0000E056E000E066E000EF6
:10332C00076E000E086E055001180FE106500218CA
:10333C000CE10750031809E108500418D8B4A9EFA0
:10334C0019F0ABEF19F0AEEF19F0D890AFEF19F010
:10335C00D880120058C05CF059C05DF0000E00011E
:10336C00C56F000EC46FCEEF19F056C040F057C0B9
:10337C0041F05C0E426E000E436E5AC044F05BC0CE
:10338C0045F0A2EC0CF040500001C4274150C5237D
:10339C005CC0F6FF5DC0F7FF0800F5500009D8A42B
:1033AC00DAEF19F0DCEF19F0BBEF19F0C4C056F0EE
:1033BC00C5C057F01200F8EF19F057C1F6FF58C10D
:1033CC00F7FFF86A070EF76403D00800F55005D034
:1033DC00F6CFE1FFF7CFE2FFE75071EC1CF00101F3
:1033EC00574B582B57C1F6FF58C1F7FFF86A070E19
:1033FC00F76403D00800F55005D0F6CFE1FFF7CF06
:10340C00E2FFE7500009D8A40EEF1AF010EF1AF003
:10341C00E3EF19F01200BF0E096EFF0E0A6E07C023
:10342C000BF008C00CF009500B260A500C220C5063
:10343C000AE11A0E0B5CD8A026EF1AF029EF1AF04D
:10344C00010E2AEF1AF0000E0D6E0E6A0D500E10C2
:10345C00D8B433EF1AF035EF1AF03CEF1AF0200E17
:10346C000710076E0850086E40EF1AF007C007F0FF
:10347C0008C008F0120057EF1AF008C0F6FF09C098
:10348C00F7FFF86A070EF76403D00800F55005D073
:10349C00F6CFE1FFF7CFE2FFE750B0EC1CF0084AA3
:1034AC00092A08C0F6FF09C0F7FFF86A070EF7648F
:1034BC0003D00800F55005D0F6CFE1FFF7CFE2FFBF
:1034CC00E7500009D8A46DEF1AF06FEF1AF043EF34
:1034DC001AF0120007C00BF008C00CF005C00DF07C
:1034EC0006C00EF00B50096E0C500A6E0B4A0C2ADB
:1034FC0009C0F6FF0AC0F7FFF86A0DC0D9FF0EC06D
:10350C00DAFF0D4A0E2A070EF76403D00800F550B7
:10351C0005D0F6CFE1FFF7CFE2FFE750DF6EDF50CB
:10352C00D8A49BEF1AF09DEF1AF078EF1AF0120066
:10353C009C0E0001A06F000EA16F98C0A2F099C064
:10354C00A3F0000EA56F000EA46F000EA76F000E67
:10355C00A66FA20E566E000E576E9AC058F09BC006
:10356C0059F0A00E5A6E000E5B6EB0EC19F0000113
:10357C00A4519825D96EA5519921DA6E000EDF6EF3
:10358C001200010E076E200E01180210D8B4D1EFF4
:10359C001AF0D3EF1AF0ECEF1AF0F70E036EFF0EE1
:1035AC00046E01C005F002C006F00350052604505D
:1035BC000622065009E1050E055CD8A0E8EF1AF0CA
:1035CC00EAEF1AF0ECEF1AF0000E076E07C001F0EC
:1035DC00026A1200720ED36E000E946E000E956E7F
:1035EC009268C2500109C26E0E0EC16E920EC06E70
:1035FC00000EC46E000EC36E9E9C9D8CF28CF28EDF
:10360C0059EC1CF0010E0101596F010E5A6F080E96
:10361C005B6F010E86EC1BF0C280C28213EF1BF0B5
:10362C0007EF00F0000E0101536F000E526F32EFE6
:10363C001BF0000E556F000E546F544B552B55510B
:10364C0009E1510E545DD8A02EEF1BF030EF1BF0AA
:10365C0023EF1BF0524B532B5251505D5351515988
:10366C00D8B03BEF1BF03DEF1BF01FEF1BF012002F
:10367C00000E046E000E036E57EF1BF0000E066E6C
:10368C00000E056E054A062A065009E1510E055C2E
:10369C00D8A053EF1BF055EF1BF048EF1BF0034A7B
:1036AC00042A0350015C04500258D8B060EF1BF0A0
:1036BC0062EF1BF044EF1BF01200000E2C1A000EF0
:1036CC002D1A000E2E1A800E2F1A28C001F029C0B8
:1036DC0002F02AC003F02BC004F02CC005F02DC062
:1036EC0006F02EC007F02FC008F042EC0AF001C023
:1036FC0028F002C029F003C02AF004C02BF01200FD
:10370C0001015C6F020E01015C618FEF1BF091EF08
:10371C001BF09AEF1BF059510F0B80095D6F5D5137
:10372C0087EC1CF0A1EF1BF059510F0BC0095D6F1A
:10373C005D5187EC1CF05AC157F15BC158F1E1ECBB
:10374C0019F01200000E106E000E0F6EB9EF1BF088
:10375C000EC001F0026A0CC003F00DC004F0D9ECED
:10376C0017F00F4A102A0F500A24D96E10500B2054
:10377C00DA6EDF500E6E0E50D8A4C7EF1BF0C9EFF7
:10378C001BF0AEEF1BF012000D6E020E0D60D1EFB0
:10379C001BF0D3EF1BF0DCEF1BF00A500F0B800972
:1037AC000E6E0E50C3EC1CF0E3EF1BF00A500F0B27
:1037BC00C0090E6E0E50C3EC1CF00BC008F00CC010
:1037CC0009F041EC1AF01200BF0E036EFF0E046EEE
:1037DC0001C005F002C006F0035005260450062275
:1037EC0006500AE11A0E055CD8A0FFEF1BF002EFA1
:1037FC001CF0010E03EF1CF0000E016E026A1200A9
:10380C000150021003100410D8B40FEF1CF011EF8C
:10381C001CF019EF1CF0000E011A000E021A000E1B
:10382C00031A800E041A01C001F002C002F003C09A
:10383C0003F004C004F01200D00E036EFF0E046EF1
:10384C0001C005F002C006F0035005260450062204
:10385C0006500AE10A0E055CD8A037EF1CF03AEFCF
:10386C001CF0010E3BEF1CF0000E016E026A120000
:10387C0001C003F002C004F046EF1CF0014A022A1A
:10388C0001C0D9FF02C0DAFFDF50D8A450EF1CF002
:10389C0052EF1CF044EF1CF00350015C016E04501D
:1038AC000258026E1200000E936E000E956E000E02
:1038BC000101516F050E506F18EC1BF0380E87ECA0
:1038CC001CF0010E87EC1CF0060E87EC1CF00C0EA5
:1038DC0087EC1CF012000101566F56C18AFF8C80D8
:1038EC008C82000E0101516F010E506F18EC1BF011
:1038FC008C92000E0101516F030E506F18EC1BF0EF
:10390C0012000101566F56C18AFF8C908C82000EFA
:10391C000101516F010E506F18EC1BF08C92000ED0
:10392C000101516F030E506F18EC1BF0120001EEE9
:10393C0000F0500EEE6AE806FDE100EEB4F0220E47
:10394C00EE6AE806FDE15E905E92000EF86E0001F4
:10395C00F0EF1AF0076E07C08AFF8C808C82000E85
:10396C00026E010E016E3EEC1BF08C92000E026E8C
:10397C00030E016E3EEC1BF01200076E07C08AFFAF
:10398C008C908C82000E026E010E016E3EEC1BF0D0
:10399C008C92000E026E030E016E3EEC1BF01200B8
:1039AC000FC001F010C002F03EEC1CF001500F24CF
:1039BC00056E02501020066E11C007F012C008F000
:1039CC0070EC1AF0120001500302F3CF05F0F4CFA3
:1039DC0006F001500402F350062602500302F35085
:0E39EC00062605C001F006C002F0120012000F
:020000040020DA
:08000000FFFFFFFFFFFFFFFF00
:020000040030CA
:0E00000000091F1EFF0381FF0FC00FE00F401D
:00000001FF
